{
  "_format": "hh-sol-artifact-1",
  "contractName": "NftCollection",
  "sourceName": "contracts/NftCollection.sol",
  "abi": [
    {
      "inputs": [
        {
          "internalType": "string",
          "name": "_name",
          "type": "string"
        },
        {
          "internalType": "string",
          "name": "_symbol",
          "type": "string"
        },
        {
          "internalType": "address",
          "name": "_marketplace",
          "type": "address"
        }
      ],
      "stateMutability": "nonpayable",
      "type": "constructor"
    },
    {
      "anonymous": false,
      "inputs": [
        {
          "indexed": true,
          "internalType": "address",
          "name": "owner",
          "type": "address"
        },
        {
          "indexed": true,
          "internalType": "address",
          "name": "approved",
          "type": "address"
        },
        {
          "indexed": true,
          "internalType": "uint256",
          "name": "tokenId",
          "type": "uint256"
        }
      ],
      "name": "Approval",
      "type": "event"
    },
    {
      "anonymous": false,
      "inputs": [
        {
          "indexed": true,
          "internalType": "address",
          "name": "owner",
          "type": "address"
        },
        {
          "indexed": true,
          "internalType": "address",
          "name": "operator",
          "type": "address"
        },
        {
          "indexed": false,
          "internalType": "bool",
          "name": "approved",
          "type": "bool"
        }
      ],
      "name": "ApprovalForAll",
      "type": "event"
    },
    {
      "anonymous": false,
      "inputs": [
        {
          "indexed": true,
          "internalType": "address",
          "name": "previousOwner",
          "type": "address"
        },
        {
          "indexed": true,
          "internalType": "address",
          "name": "newOwner",
          "type": "address"
        }
      ],
      "name": "OwnershipTransferred",
      "type": "event"
    },
    {
      "anonymous": false,
      "inputs": [
        {
          "indexed": true,
          "internalType": "address",
          "name": "from",
          "type": "address"
        },
        {
          "indexed": true,
          "internalType": "address",
          "name": "to",
          "type": "address"
        },
        {
          "indexed": true,
          "internalType": "uint256",
          "name": "tokenId",
          "type": "uint256"
        }
      ],
      "name": "Transfer",
      "type": "event"
    },
    {
      "inputs": [
        {
          "internalType": "address",
          "name": "to",
          "type": "address"
        },
        {
          "internalType": "uint256",
          "name": "tokenId",
          "type": "uint256"
        }
      ],
      "name": "approve",
      "outputs": [],
      "stateMutability": "nonpayable",
      "type": "function"
    },
    {
      "inputs": [
        {
          "internalType": "address",
          "name": "owner",
          "type": "address"
        }
      ],
      "name": "balanceOf",
      "outputs": [
        {
          "internalType": "uint256",
          "name": "",
          "type": "uint256"
        }
      ],
      "stateMutability": "view",
      "type": "function"
    },
    {
      "inputs": [
        {
          "internalType": "uint256",
          "name": "tokenId",
          "type": "uint256"
        }
      ],
      "name": "burn",
      "outputs": [],
      "stateMutability": "nonpayable",
      "type": "function"
    },
    {
      "inputs": [
        {
          "internalType": "uint256",
          "name": "tokenId",
          "type": "uint256"
        }
      ],
      "name": "getApproved",
      "outputs": [
        {
          "internalType": "address",
          "name": "",
          "type": "address"
        }
      ],
      "stateMutability": "view",
      "type": "function"
    },
    {
      "inputs": [
        {
          "internalType": "address",
          "name": "owner",
          "type": "address"
        },
        {
          "internalType": "address",
          "name": "operator",
          "type": "address"
        }
      ],
      "name": "isApprovedForAll",
      "outputs": [
        {
          "internalType": "bool",
          "name": "",
          "type": "bool"
        }
      ],
      "stateMutability": "view",
      "type": "function"
    },
    {
      "inputs": [],
      "name": "marketplace",
      "outputs": [
        {
          "internalType": "contract NftMarketplaceInterface",
          "name": "",
          "type": "address"
        }
      ],
      "stateMutability": "view",
      "type": "function"
    },
    {
      "inputs": [],
      "name": "name",
      "outputs": [
        {
          "internalType": "string",
          "name": "",
          "type": "string"
        }
      ],
      "stateMutability": "view",
      "type": "function"
    },
    {
      "inputs": [],
      "name": "owner",
      "outputs": [
        {
          "internalType": "address",
          "name": "",
          "type": "address"
        }
      ],
      "stateMutability": "view",
      "type": "function"
    },
    {
      "inputs": [
        {
          "internalType": "uint256",
          "name": "tokenId",
          "type": "uint256"
        }
      ],
      "name": "ownerOf",
      "outputs": [
        {
          "internalType": "address",
          "name": "",
          "type": "address"
        }
      ],
      "stateMutability": "view",
      "type": "function"
    },
    {
      "inputs": [],
      "name": "renounceOwnership",
      "outputs": [],
      "stateMutability": "nonpayable",
      "type": "function"
    },
    {
      "inputs": [
        {
          "internalType": "address",
          "name": "_to",
          "type": "address"
        },
        {
          "internalType": "string",
          "name": "_uri",
          "type": "string"
        }
      ],
      "name": "safeMint",
      "outputs": [],
      "stateMutability": "nonpayable",
      "type": "function"
    },
    {
      "inputs": [
        {
          "internalType": "address",
          "name": "from",
          "type": "address"
        },
        {
          "internalType": "address",
          "name": "to",
          "type": "address"
        },
        {
          "internalType": "uint256",
          "name": "tokenId",
          "type": "uint256"
        }
      ],
      "name": "safeTransferFrom",
      "outputs": [],
      "stateMutability": "nonpayable",
      "type": "function"
    },
    {
      "inputs": [
        {
          "internalType": "address",
          "name": "from",
          "type": "address"
        },
        {
          "internalType": "address",
          "name": "to",
          "type": "address"
        },
        {
          "internalType": "uint256",
          "name": "tokenId",
          "type": "uint256"
        },
        {
          "internalType": "bytes",
          "name": "_data",
          "type": "bytes"
        }
      ],
      "name": "safeTransferFrom",
      "outputs": [],
      "stateMutability": "nonpayable",
      "type": "function"
    },
    {
      "inputs": [
        {
          "internalType": "address",
          "name": "operator",
          "type": "address"
        },
        {
          "internalType": "bool",
          "name": "approved",
          "type": "bool"
        }
      ],
      "name": "setApprovalForAll",
      "outputs": [],
      "stateMutability": "nonpayable",
      "type": "function"
    },
    {
      "inputs": [
        {
          "internalType": "bytes4",
          "name": "interfaceId",
          "type": "bytes4"
        }
      ],
      "name": "supportsInterface",
      "outputs": [
        {
          "internalType": "bool",
          "name": "",
          "type": "bool"
        }
      ],
      "stateMutability": "view",
      "type": "function"
    },
    {
      "inputs": [],
      "name": "symbol",
      "outputs": [
        {
          "internalType": "string",
          "name": "",
          "type": "string"
        }
      ],
      "stateMutability": "view",
      "type": "function"
    },
    {
      "inputs": [
        {
          "internalType": "uint256",
          "name": "index",
          "type": "uint256"
        }
      ],
      "name": "tokenByIndex",
      "outputs": [
        {
          "internalType": "uint256",
          "name": "",
          "type": "uint256"
        }
      ],
      "stateMutability": "view",
      "type": "function"
    },
    {
      "inputs": [
        {
          "internalType": "address",
          "name": "owner",
          "type": "address"
        },
        {
          "internalType": "uint256",
          "name": "index",
          "type": "uint256"
        }
      ],
      "name": "tokenOfOwnerByIndex",
      "outputs": [
        {
          "internalType": "uint256",
          "name": "",
          "type": "uint256"
        }
      ],
      "stateMutability": "view",
      "type": "function"
    },
    {
      "inputs": [
        {
          "internalType": "uint256",
          "name": "tokenId",
          "type": "uint256"
        }
      ],
      "name": "tokenURI",
      "outputs": [
        {
          "internalType": "string",
          "name": "",
          "type": "string"
        }
      ],
      "stateMutability": "view",
      "type": "function"
    },
    {
      "inputs": [],
      "name": "totalSupply",
      "outputs": [
        {
          "internalType": "uint256",
          "name": "",
          "type": "uint256"
        }
      ],
      "stateMutability": "view",
      "type": "function"
    },
    {
      "inputs": [
        {
          "internalType": "address",
          "name": "from",
          "type": "address"
        },
        {
          "internalType": "address",
          "name": "to",
          "type": "address"
        },
        {
          "internalType": "uint256",
          "name": "tokenId",
          "type": "uint256"
        }
      ],
      "name": "transferFrom",
      "outputs": [],
      "stateMutability": "nonpayable",
      "type": "function"
    },
    {
      "inputs": [
        {
          "internalType": "address",
          "name": "newOwner",
          "type": "address"
        }
      ],
      "name": "transferOwnership",
      "outputs": [],
      "stateMutability": "nonpayable",
      "type": "function"
    }
  ],
  "bytecode": "0x60806040523480156200001157600080fd5b50604051620023773803806200237783398101604081905262000034916200025c565b8251839083906200004d906000906020850190620000ff565b50805162000063906001906020840190620000ff565b505050620000806200007a620000a960201b60201c565b620000ad565b600d80546001600160a01b0319166001600160a01b0392909216919091179055506200033c9050565b3390565b600b80546001600160a01b038381166001600160a01b0319831681179093556040519116919082907f8be0079c531659141344cd1fd0a4f28419497f9722a3daafe3b4186f6b6457e090600090a35050565b8280546200010d90620002e9565b90600052602060002090601f0160209004810192826200013157600085556200017c565b82601f106200014c57805160ff19168380011785556200017c565b828001600101855582156200017c579182015b828111156200017c5782518255916020019190600101906200015f565b506200018a9291506200018e565b5090565b5b808211156200018a57600081556001016200018f565b600082601f830112620001b757600080fd5b81516001600160401b0380821115620001d457620001d462000326565b604051601f8301601f19908116603f01168101908282118183101715620001ff57620001ff62000326565b816040528381526020925086838588010111156200021c57600080fd5b600091505b8382101562000240578582018301518183018401529082019062000221565b83821115620002525760008385830101525b9695505050505050565b6000806000606084860312156200027257600080fd5b83516001600160401b03808211156200028a57600080fd5b6200029887838801620001a5565b94506020860151915080821115620002af57600080fd5b50620002be86828701620001a5565b604086015190935090506001600160a01b0381168114620002de57600080fd5b809150509250925092565b600181811c90821680620002fe57607f821691505b602082108114156200032057634e487b7160e01b600052602260045260246000fd5b50919050565b634e487b7160e01b600052604160045260246000fd5b61202b806200034c6000396000f3fe608060405234801561001057600080fd5b50600436106101425760003560e01c806370a08231116100b8578063abc8c7af1161007c578063abc8c7af1461028f578063b88d4fde146102a2578063c87b56dd146102b5578063d204c45e146102c8578063e985e9c5146102db578063f2fde38b1461031757600080fd5b806370a0823114610248578063715018a61461025b5780638da5cb5b1461026357806395d89b4114610274578063a22cb4651461027c57600080fd5b806323b872dd1161010a57806323b872dd146101d65780632f745c59146101e957806342842e0e146101fc57806342966c681461020f5780634f6ccce7146102225780636352211e1461023557600080fd5b806301ffc9a71461014757806306fdde031461016f578063081812fc14610184578063095ea7b3146101af57806318160ddd146101c4575b600080fd5b61015a610155366004611ca9565b61032a565b60405190151581526020015b60405180910390f35b61017761033b565b6040516101669190611dad565b610197610192366004611ce3565b6103cd565b6040516001600160a01b039091168152602001610166565b6101c26101bd366004611c7f565b61045a565b005b6008545b604051908152602001610166565b6101c26101e4366004611b29565b610570565b6101c86101f7366004611c7f565b6105a2565b6101c261020a366004611b29565b610638565b6101c261021d366004611ce3565b610653565b6101c8610230366004611ce3565b6106cd565b610197610243366004611ce3565b610760565b6101c8610256366004611adb565b6107d7565b6101c261085e565b600b546001600160a01b0316610197565b610177610894565b6101c261028a366004611be1565b6108a3565b600d54610197906001600160a01b031681565b6101c26102b0366004611b65565b6108b2565b6101776102c3366004611ce3565b6108ea565b6101c26102d6366004611c1d565b6108f5565b61015a6102e9366004611af6565b6001600160a01b03918216600090815260056020908152604080832093909416825291909152205460ff1690565b6101c2610325366004611adb565b61094e565b6000610335826109e6565b92915050565b60606000805461034a90611f07565b80601f016020809104026020016040519081016040528092919081815260200182805461037690611f07565b80156103c35780601f10610398576101008083540402835291602001916103c3565b820191906000526020600020905b8154815290600101906020018083116103a657829003601f168201915b5050505050905090565b60006103d882610a0b565b61043e5760405162461bcd60e51b815260206004820152602c60248201527f4552433732313a20617070726f76656420717565727920666f72206e6f6e657860448201526b34b9ba32b73a103a37b5b2b760a11b60648201526084015b60405180910390fd5b506000908152600460205260409020546001600160a01b031690565b600061046582610760565b9050806001600160a01b0316836001600160a01b031614156104d35760405162461bcd60e51b815260206004820152602160248201527f4552433732313a20617070726f76616c20746f2063757272656e74206f776e656044820152603960f91b6064820152608401610435565b336001600160a01b03821614806104ef57506104ef81336102e9565b6105615760405162461bcd60e51b815260206004820152603860248201527f4552433732313a20617070726f76652063616c6c6572206973206e6f74206f7760448201527f6e6572206e6f7220617070726f76656420666f7220616c6c00000000000000006064820152608401610435565b61056b8383610a28565b505050565b61057b335b82610a96565b6105975760405162461bcd60e51b815260040161043590611e47565b61056b838383610b80565b60006105ad836107d7565b821061060f5760405162461bcd60e51b815260206004820152602b60248201527f455243373231456e756d657261626c653a206f776e657220696e646578206f7560448201526a74206f6620626f756e647360a81b6064820152608401610435565b506001600160a01b03919091166000908152600660209081526040808320938352929052205490565b61056b838383604051806020016040528060008152506108b2565b61065c33610575565b6106c15760405162461bcd60e51b815260206004820152603060248201527f4552433732314275726e61626c653a2063616c6c6572206973206e6f74206f7760448201526f1b995c881b9bdc88185c1c1c9bdd995960821b6064820152608401610435565b6106ca81610d2d565b50565b60006106d860085490565b821061073b5760405162461bcd60e51b815260206004820152602c60248201527f455243373231456e756d657261626c653a20676c6f62616c20696e646578206f60448201526b7574206f6620626f756e647360a01b6064820152608401610435565b6008828154811061074e5761074e611fb3565b90600052602060002001549050919050565b6000818152600260205260408120546001600160a01b0316806103355760405162461bcd60e51b815260206004820152602960248201527f4552433732313a206f776e657220717565727920666f72206e6f6e657869737460448201526832b73a103a37b5b2b760b91b6064820152608401610435565b60006001600160a01b0382166108425760405162461bcd60e51b815260206004820152602a60248201527f4552433732313a2062616c616e636520717565727920666f7220746865207a65604482015269726f206164647265737360b01b6064820152608401610435565b506001600160a01b031660009081526003602052604090205490565b600b546001600160a01b031633146108885760405162461bcd60e51b815260040161043590611e12565b6108926000610d36565b565b60606001805461034a90611f07565b6108ae338383610d88565b5050565b6108bc3383610a96565b6108d85760405162461bcd60e51b815260040161043590611e47565b6108e484848484610e57565b50505050565b606061033582610e8a565b600b546001600160a01b0316331461091f5760405162461bcd60e51b815260040161043590611e12565b600061092a600c5490565b905061093a600c80546001019055565b6109448382610ff9565b61056b8183611013565b600b546001600160a01b031633146109785760405162461bcd60e51b815260040161043590611e12565b6001600160a01b0381166109dd5760405162461bcd60e51b815260206004820152602660248201527f4f776e61626c653a206e6577206f776e657220697320746865207a65726f206160448201526564647265737360d01b6064820152608401610435565b6106ca81610d36565b60006001600160e01b0319821663780e9d6360e01b148061033557506103358261109e565b6000908152600260205260409020546001600160a01b0316151590565b600081815260046020526040902080546001600160a01b0319166001600160a01b0384169081179091558190610a5d82610760565b6001600160a01b03167f8c5be1e5ebec7d5bd14f71427d1e84f3dd0314c0f7b2291e5b200ac8c7c3b92560405160405180910390a45050565b6000610aa182610a0b565b610b025760405162461bcd60e51b815260206004820152602c60248201527f4552433732313a206f70657261746f7220717565727920666f72206e6f6e657860448201526b34b9ba32b73a103a37b5b2b760a11b6064820152608401610435565b6000610b0d83610760565b9050806001600160a01b0316846001600160a01b03161480610b5457506001600160a01b0380821660009081526005602090815260408083209388168352929052205460ff165b80610b785750836001600160a01b0316610b6d846103cd565b6001600160a01b0316145b949350505050565b826001600160a01b0316610b9382610760565b6001600160a01b031614610bf75760405162461bcd60e51b815260206004820152602560248201527f4552433732313a207472616e736665722066726f6d20696e636f72726563742060448201526437bbb732b960d91b6064820152608401610435565b6001600160a01b038216610c595760405162461bcd60e51b8152602060048201526024808201527f4552433732313a207472616e7366657220746f20746865207a65726f206164646044820152637265737360e01b6064820152608401610435565b610c648383836110ee565b610c6f600082610a28565b6001600160a01b0383166000908152600360205260408120805460019290610c98908490611ec4565b90915550506001600160a01b0382166000908152600360205260408120805460019290610cc6908490611e98565b909155505060008181526002602052604080822080546001600160a01b0319166001600160a01b0386811691821790925591518493918716917fddf252ad1be2c89b69c2b068fc378daa952ba7f163c4a11628f55a4df523b3ef91a461056b8383836110f9565b6106ca816111e6565b600b80546001600160a01b038381166001600160a01b0319831681179093556040519116919082907f8be0079c531659141344cd1fd0a4f28419497f9722a3daafe3b4186f6b6457e090600090a35050565b816001600160a01b0316836001600160a01b03161415610dea5760405162461bcd60e51b815260206004820152601960248201527f4552433732313a20617070726f766520746f2063616c6c6572000000000000006044820152606401610435565b6001600160a01b03838116600081815260056020908152604080832094871680845294825291829020805460ff191686151590811790915591519182527f17307eab39ab6107e8899845ad3d59bd9653f200f220920489ca2b5937696c31910160405180910390a3505050565b610e62848484610b80565b610e6e84848484611226565b6108e45760405162461bcd60e51b815260040161043590611dc0565b6060610e9582610a0b565b610efb5760405162461bcd60e51b815260206004820152603160248201527f45524337323155524953746f726167653a2055524920717565727920666f72206044820152703737b732bc34b9ba32b73a103a37b5b2b760791b6064820152608401610435565b6000828152600a602052604081208054610f1490611f07565b80601f0160208091040260200160405190810160405280929190818152602001828054610f4090611f07565b8015610f8d5780601f10610f6257610100808354040283529160200191610f8d565b820191906000526020600020905b815481529060010190602001808311610f7057829003601f168201915b505050505090506000610fab60408051602081019091526000815290565b9050805160001415610fbe575092915050565b815115610ff0578082604051602001610fd8929190611d41565b60405160208183030381529060405292505050919050565b610b7884611333565b6108ae82826040518060200160405280600081525061140b565b61101c82610a0b565b61107f5760405162461bcd60e51b815260206004820152602e60248201527f45524337323155524953746f726167653a2055524920736574206f66206e6f6e60448201526d32bc34b9ba32b73a103a37b5b2b760911b6064820152608401610435565b6000828152600a60209081526040909120825161056b9284019061197a565b60006001600160e01b031982166380ac58cd60e01b14806110cf57506001600160e01b03198216635b5e139f60e01b145b8061033557506301ffc9a760e01b6001600160e01b0319831614610335565b61056b83838361143e565b600d54604051617df360e41b8152306004820152602481018390526001600160a01b03909116906207df309060440160206040518083038186803b15801561114057600080fd5b505afa158015611154573d6000803e3d6000fd5b505050506040513d601f19601f820116820180604052508101906111789190611cfc565b1561056b57600d5460405163596ef70360e11b8152306004820152602481018390526001600160a01b039091169063b2ddee0690604401600060405180830381600087803b1580156111c957600080fd5b505af11580156111dd573d6000803e3d6000fd5b50505050505050565b6111ef816114f6565b6000818152600a60205260409020805461120890611f07565b1590506106ca576000818152600a602052604081206106ca916119fe565b60006001600160a01b0384163b1561132857604051630a85bd0160e11b81526001600160a01b0385169063150b7a029061126a903390899088908890600401611d70565b602060405180830381600087803b15801561128457600080fd5b505af19250505080156112b4575060408051601f3d908101601f191682019092526112b191810190611cc6565b60015b61130e573d8080156112e2576040519150601f19603f3d011682016040523d82523d6000602084013e6112e7565b606091505b5080516113065760405162461bcd60e51b815260040161043590611dc0565b805181602001fd5b6001600160e01b031916630a85bd0160e11b149050610b78565b506001949350505050565b606061133e82610a0b565b6113a25760405162461bcd60e51b815260206004820152602f60248201527f4552433732314d657461646174613a2055524920717565727920666f72206e6f60448201526e3732bc34b9ba32b73a103a37b5b2b760891b6064820152608401610435565b60006113b960408051602081019091526000815290565b905060008151116113d95760405180602001604052806000815250611404565b806113e3846115a5565b6040516020016113f4929190611d41565b6040516020818303038152906040525b9392505050565b61141583836116a3565b6114226000848484611226565b61056b5760405162461bcd60e51b815260040161043590611dc0565b6001600160a01b0383166114995761149481600880546000838152600960205260408120829055600182018355919091527ff3f7a9fe364faab93b216da50a3214154f22a0a2b415b23a84c8169e8b636ee30155565b6114bc565b816001600160a01b0316836001600160a01b0316146114bc576114bc83826117ea565b6001600160a01b0382166114d35761056b81611887565b826001600160a01b0316826001600160a01b03161461056b5761056b8282611936565b600061150182610760565b905061150f816000846110ee565b61151a600083610a28565b6001600160a01b0381166000908152600360205260408120805460019290611543908490611ec4565b909155505060008281526002602052604080822080546001600160a01b0319169055518391906001600160a01b038416907fddf252ad1be2c89b69c2b068fc378daa952ba7f163c4a11628f55a4df523b3ef908390a46108ae816000846110f9565b6060816115c95750506040805180820190915260018152600360fc1b602082015290565b8160005b81156115f357806115dd81611f42565b91506115ec9050600a83611eb0565b91506115cd565b60008167ffffffffffffffff81111561160e5761160e611fc9565b6040519080825280601f01601f191660200182016040528015611638576020820181803683370190505b5090505b8415610b785761164d600183611ec4565b915061165a600a86611f5d565b611665906030611e98565b60f81b81838151811061167a5761167a611fb3565b60200101906001600160f81b031916908160001a90535061169c600a86611eb0565b945061163c565b6001600160a01b0382166116f95760405162461bcd60e51b815260206004820181905260248201527f4552433732313a206d696e7420746f20746865207a65726f20616464726573736044820152606401610435565b61170281610a0b565b1561174f5760405162461bcd60e51b815260206004820152601c60248201527f4552433732313a20746f6b656e20616c7265616479206d696e746564000000006044820152606401610435565b61175b600083836110ee565b6001600160a01b0382166000908152600360205260408120805460019290611784908490611e98565b909155505060008181526002602052604080822080546001600160a01b0319166001600160a01b03861690811790915590518392907fddf252ad1be2c89b69c2b068fc378daa952ba7f163c4a11628f55a4df523b3ef908290a46108ae600083836110f9565b600060016117f7846107d7565b6118019190611ec4565b600083815260076020526040902054909150808214611854576001600160a01b03841660009081526006602090815260408083208584528252808320548484528184208190558352600790915290208190555b5060009182526007602090815260408084208490556001600160a01b039094168352600681528383209183525290812055565b60085460009061189990600190611ec4565b600083815260096020526040812054600880549394509092849081106118c1576118c1611fb3565b9060005260206000200154905080600883815481106118e2576118e2611fb3565b600091825260208083209091019290925582815260099091526040808220849055858252812055600880548061191a5761191a611f9d565b6001900381819060005260206000200160009055905550505050565b6000611941836107d7565b6001600160a01b039093166000908152600660209081526040808320868452825280832085905593825260079052919091209190915550565b82805461198690611f07565b90600052602060002090601f0160209004810192826119a857600085556119ee565b82601f106119c157805160ff19168380011785556119ee565b828001600101855582156119ee579182015b828111156119ee5782518255916020019190600101906119d3565b506119fa929150611a34565b5090565b508054611a0a90611f07565b6000825580601f10611a1a575050565b601f0160209004906000526020600020908101906106ca91905b5b808211156119fa5760008155600101611a35565b600067ffffffffffffffff80841115611a6457611a64611fc9565b604051601f8501601f19908116603f01168101908282118183101715611a8c57611a8c611fc9565b81604052809350858152868686011115611aa557600080fd5b858560208301376000602087830101525050509392505050565b80356001600160a01b0381168114611ad657600080fd5b919050565b600060208284031215611aed57600080fd5b61140482611abf565b60008060408385031215611b0957600080fd5b611b1283611abf565b9150611b2060208401611abf565b90509250929050565b600080600060608486031215611b3e57600080fd5b611b4784611abf565b9250611b5560208501611abf565b9150604084013590509250925092565b60008060008060808587031215611b7b57600080fd5b611b8485611abf565b9350611b9260208601611abf565b925060408501359150606085013567ffffffffffffffff811115611bb557600080fd5b8501601f81018713611bc657600080fd5b611bd587823560208401611a49565b91505092959194509250565b60008060408385031215611bf457600080fd5b611bfd83611abf565b915060208301358015158114611c1257600080fd5b809150509250929050565b60008060408385031215611c3057600080fd5b611c3983611abf565b9150602083013567ffffffffffffffff811115611c5557600080fd5b8301601f81018513611c6657600080fd5b611c7585823560208401611a49565b9150509250929050565b60008060408385031215611c9257600080fd5b611c9b83611abf565b946020939093013593505050565b600060208284031215611cbb57600080fd5b813561140481611fdf565b600060208284031215611cd857600080fd5b815161140481611fdf565b600060208284031215611cf557600080fd5b5035919050565b600060208284031215611d0e57600080fd5b5051919050565b60008151808452611d2d816020860160208601611edb565b601f01601f19169290920160200192915050565b60008351611d53818460208801611edb565b835190830190611d67818360208801611edb565b01949350505050565b6001600160a01b0385811682528416602082015260408101839052608060608201819052600090611da390830184611d15565b9695505050505050565b6020815260006114046020830184611d15565b60208082526032908201527f4552433732313a207472616e7366657220746f206e6f6e20455243373231526560408201527131b2b4bb32b91034b6b83632b6b2b73a32b960711b606082015260800190565b6020808252818101527f4f776e61626c653a2063616c6c6572206973206e6f7420746865206f776e6572604082015260600190565b60208082526031908201527f4552433732313a207472616e736665722063616c6c6572206973206e6f74206f6040820152701ddb995c881b9bdc88185c1c1c9bdd9959607a1b606082015260800190565b60008219821115611eab57611eab611f71565b500190565b600082611ebf57611ebf611f87565b500490565b600082821015611ed657611ed6611f71565b500390565b60005b83811015611ef6578181015183820152602001611ede565b838111156108e45750506000910152565b600181811c90821680611f1b57607f821691505b60208210811415611f3c57634e487b7160e01b600052602260045260246000fd5b50919050565b6000600019821415611f5657611f56611f71565b5060010190565b600082611f6c57611f6c611f87565b500690565b634e487b7160e01b600052601160045260246000fd5b634e487b7160e01b600052601260045260246000fd5b634e487b7160e01b600052603160045260246000fd5b634e487b7160e01b600052603260045260246000fd5b634e487b7160e01b600052604160045260246000fd5b6001600160e01b0319811681146106ca57600080fdfea2646970667358221220bb29724cab3866bc7ae279811f27a3f95c6a39340eea79ab85f387b6a0a77b1a64736f6c63430008070033",
  "linkReferences": {},
  "deployedLinkReferences": {}
}